{
  "contractName": "NetflixSmartContract",
  "abi": [
    {
      "inputs": [
        {
          "internalType": "uint256",
          "name": "",
          "type": "uint256"
        }
      ],
      "name": "profiles",
      "outputs": [
        {
          "internalType": "string",
          "name": "name",
          "type": "string"
        },
        {
          "internalType": "uint256",
          "name": "amount",
          "type": "uint256"
        },
        {
          "internalType": "string",
          "name": "email",
          "type": "string"
        }
      ],
      "stateMutability": "view",
      "type": "function",
      "constant": true
    },
    {
      "inputs": [
        {
          "internalType": "string",
          "name": "name",
          "type": "string"
        },
        {
          "internalType": "address payable",
          "name": "netflix",
          "type": "address"
        },
        {
          "internalType": "uint32",
          "name": "subscriptionIndex",
          "type": "uint32"
        },
        {
          "internalType": "string",
          "name": "email",
          "type": "string"
        }
      ],
      "name": "subscribe",
      "outputs": [],
      "stateMutability": "payable",
      "type": "function",
      "payable": true
    }
  ],
  "bytecode": "0x608060405267016345785d8a000060005534801561001c57600080fd5b506107d68061002c6000396000f3fe6080604052600436106100295760003560e01c80635fbb66621461002e578063c36fe3d61461004a575b600080fd5b61004860048036038101906100439190610533565b610089565b005b34801561005657600080fd5b50610071600480360381019061006c9190610608565b61015c565b604051610080939291906106cc565b60405180910390f35b600060405180606001604052808681526020013481526020018381525090508060018463ffffffff16606481106100c3576100c2610711565b5b6003020160008201518160000190805190602001906100e392919061029c565b5060208201518160010155604082015181600201908051906020019061010a92919061029c565b509050508373ffffffffffffffffffffffffffffffffffffffff166108fc349081150290604051600060405180830381858888f19350505050158015610154573d6000803e3d6000fd5b505050505050565b6001816064811061016c57600080fd5b600302016000915090508060000180546101859061076f565b80601f01602080910402602001604051908101604052809291908181526020018280546101b19061076f565b80156101fe5780601f106101d3576101008083540402835291602001916101fe565b820191906000526020600020905b8154815290600101906020018083116101e157829003601f168201915b5050505050908060010154908060020180546102199061076f565b80601f01602080910402602001604051908101604052809291908181526020018280546102459061076f565b80156102925780601f1061026757610100808354040283529160200191610292565b820191906000526020600020905b81548152906001019060200180831161027557829003601f168201915b5050505050905083565b8280546102a89061076f565b90600052602060002090601f0160209004810192826102ca5760008555610311565b82601f106102e357805160ff1916838001178555610311565b82800160010185558215610311579182015b828111156103105782518255916020019190600101906102f5565b5b50905061031e9190610322565b5090565b5b8082111561033b576000816000905550600101610323565b5090565b6000604051905090565b600080fd5b600080fd5b600080fd5b600080fd5b6000601f19601f8301169050919050565b7f4e487b7100000000000000000000000000000000000000000000000000000000600052604160045260246000fd5b6103a68261035d565b810181811067ffffffffffffffff821117156103c5576103c461036e565b5b80604052505050565b60006103d861033f565b90506103e4828261039d565b919050565b600067ffffffffffffffff8211156104045761040361036e565b5b61040d8261035d565b9050602081019050919050565b82818337600083830152505050565b600061043c610437846103e9565b6103ce565b90508281526020810184848401111561045857610457610358565b5b61046384828561041a565b509392505050565b600082601f8301126104805761047f610353565b5b8135610490848260208601610429565b91505092915050565b600073ffffffffffffffffffffffffffffffffffffffff82169050919050565b60006104c482610499565b9050919050565b6104d4816104b9565b81146104df57600080fd5b50565b6000813590506104f1816104cb565b92915050565b600063ffffffff82169050919050565b610510816104f7565b811461051b57600080fd5b50565b60008135905061052d81610507565b92915050565b6000806000806080858703121561054d5761054c610349565b5b600085013567ffffffffffffffff81111561056b5761056a61034e565b5b6105778782880161046b565b9450506020610588878288016104e2565b93505060406105998782880161051e565b925050606085013567ffffffffffffffff8111156105ba576105b961034e565b5b6105c68782880161046b565b91505092959194509250565b6000819050919050565b6105e5816105d2565b81146105f057600080fd5b50565b600081359050610602816105dc565b92915050565b60006020828403121561061e5761061d610349565b5b600061062c848285016105f3565b91505092915050565b600081519050919050565b600082825260208201905092915050565b60005b8381101561066f578082015181840152602081019050610654565b8381111561067e576000848401525b50505050565b600061068f82610635565b6106998185610640565b93506106a9818560208601610651565b6106b28161035d565b840191505092915050565b6106c6816105d2565b82525050565b600060608201905081810360008301526106e68186610684565b90506106f560208301856106bd565b81810360408301526107078184610684565b9050949350505050565b7f4e487b7100000000000000000000000000000000000000000000000000000000600052603260045260246000fd5b7f4e487b7100000000000000000000000000000000000000000000000000000000600052602260045260246000fd5b6000600282049050600182168061078757607f821691505b60208210810361079a57610799610740565b5b5091905056fea2646970667358221220ab0b6a5ef455801afaf09b960ac741cfca0829ec333e253b9c4697062eb651fc64736f6c634300080d0033",
  "immutableReferences": {},
  "source": "// SPDX-License-Identifier: MIT\npragma solidity >=0.4.22 <0.9.0;\n\ncontract NetflixSmartContract {\n struct subscriberProfile {\n     string name;\n     uint256 amount;\n     string email;\n }\n\n uint256 subscriptionCost = 1e17;\n \n  subscriberProfile[100] public profiles;\n \n function subscribe(\n    string memory name, \n    address payable netflix,\n    uint32 subscriptionIndex, \n    string memory email\n ) external payable {\n\n    subscriberProfile memory profile = subscriberProfile(name, msg.value, email);\n    profiles[subscriptionIndex] = profile;\n    netflix.transfer(msg.value);\n }\n}\n",
  "sourcePath": "/home/mubbashir-react-env/smart_contracts/contracts/NetflixSmartContract.sol",
  "compiler": {
    "name": "solc",
    "version": "0.8.13+commit.abaa5c0e.Emscripten.clang"
  },
  "schemaVersion": "3.4.7",
  "updatedAt": "2022-04-14T14:30:07.977Z",
  "networkType": "ethereum",
  "devdoc": {
    "kind": "dev",
    "methods": {},
    "version": 1
  },
  "userdoc": {
    "kind": "user",
    "methods": {},
    "version": 1
  }
}